:0200000480007A
:10000000370100801301010BE7000100130000001D
:1000100000000000000000000000000000000000E0
:10002000232E11FE232C51FE232A61FE232871FE6C
:100030002326A1FE2324B1FE2322C1FE2320D1FECC
:10004000232EE1FC232CF1FC232A01FD232811FDA2
:100050002326C1FD2324D1FD2322E1FD2320F1FD30
:10006000130101FCEF0000278320C10383228103D9
:1000700003234103832301030325C1028325810256
:1000800003264102832601020327C1018327810140
:100090000328410183280101032EC100832E810022
:1000A000032F4100832F010013010104730020304E
:1000B000971100009381819A1701000013018118A4
:1000C000170500001305851997050000938505198C
:1000D0006308B50023200500130545006FF05FFF9E
:1000E000138581921301C1FF93858192630EB50040
:1000F00083260500130545002320A100E7800600A4
:10010000032501006FF05FFE130141003715000069
:1001100013050588731045303725000013058580C9
:1001200073100530EF00401B6F000000000000005E
:0401300000000000CB
:1002400068656C6C6F20776F726C64206172747972
:08025000206137207631000027
:10025800B70601F003470500631407006780000034
:1002680083A7460093D7070193F7F70FE38A07FEA2
:1002780023A0E600130515006FF0DFFD130101FF51
:1002880023261100EFF0DFFC370701F08327470032
:1002980093D7070193F7F70FE38A07FE9307A000A8
:1002A8002320F7008320C1001301010167800000AB
:1002B80093070000370700F06394A70067800000E9
:1002C80083264700938717006FF01FFF67800000A1
:1002D800130101FE232C8100232A910023282101E8
:1002E800232631012324410123225101232E110009
:1002F800B70700F01307F00023A4E70037050080D4
:100308001307100023A2E7001305052437841E00F5
:10031800EFF0DFF6B70400F0930A10001304044866
:100328001309200093094000130A800013050400F4
:1003380023A25401EFF0DFF71305040023A22401E0
:10034800EFF01FF71305040023A23401EFF05FF666
:100358001305040023A24401EFF09FF513050400E0
:1003680023A23401EFF0DFF41305040023A22401D3
:08037800EFF01FF46FF09FFB92
:040000058000000077
:00000001FF
